{
  "contractName": "DappToken",
  "abi": [
    {
      "constant": true,
      "inputs": [],
      "name": "totalsupply",
      "outputs": [
        {
          "name": "",
          "type": "uint256"
        }
      ],
      "payable": false,
      "stateMutability": "view",
      "type": "function"
    }
  ],
  "bytecode": "0x6080604052620f4240600055348015601657600080fd5b50607b806100256000396000f3fe6080604052348015600f57600080fd5b506004361060285760003560e01c806372dd529b14602d575b600080fd5b60336049565b6040518082815260200191505060405180910390f35b6000548156fea165627a7a7230582085010e85cd2912d2ad537b9605f260c1ed6b8fad9896338244ccc99b8b70fa630029",
  "source": "pragma solidity >=0.4.21 <0.6.0;\r\n\r\ncontract DappToken \r\n{\r\n\r\n\r\n\t\t//constructor\r\n\t\t//Set the total number of tokens\r\n\t\t// read the total number of tokens\r\n\t\tuint256  public totalsupply = 1000000;\r\n\r\n\r\n\r\n\t\t// function DappToken () public\r\n\t\t// \t{\r\n\t\t// \t\ttotalsupply = 10000000;\r\n\t\t// \t}\r\n\r\n\r\n}",
  "sourcePath": "C:/Users/bonap/Token_sale/contracts/DappToken.sol",
  "compiler": {
    "name": "solc",
    "version": "0.5.8+commit.23d335f2.Emscripten.clang"
  },
  "schemaVersion": "3.0.11",
  "updatedAt": "2019-07-24T16:16:12.708Z",
  "devdoc": {
    "methods": {}
  },
  "userdoc": {
    "methods": {}
  }
}