{
  "contractName": "DappToken",
  "abi": [
    {
      "constant": true,
      "inputs": [],
      "name": "totalsupply",
      "outputs": [
        {
          "name": "",
          "type": "uint256"
        }
      ],
      "payable": false,
      "stateMutability": "view",
      "type": "function"
    },
    {
      "constant": false,
      "inputs": [],
      "name": "DapppToken",
      "outputs": [],
      "payable": false,
      "stateMutability": "nonpayable",
      "type": "function"
    }
  ],
  "bytecode": "0x6080604052348015600f57600080fd5b5060998061001e6000396000f3fe6080604052348015600f57600080fd5b506004361060325760003560e01c806372dd529b14603757806375ee80a5146053575b600080fd5b603d605b565b6040518082815260200191505060405180910390f35b60596061565b005b60005481565b6298968060008190555056fea165627a7a7230582078aa662063a028f130873400e1548ff74d7d453b25eb3c6b7ad160443f71d18f0029",
  "source": "pragma solidity >=0.4.21 <0.6.0;\r\n\r\ncontract DappToken {\r\n\r\n//constructor\r\n//Set the total number of tokens\r\n// read the total number of tokens\r\nuint256  public totalsupply;\r\n\r\nfunction DapppToken () public\r\n\t{\r\n\t\ttotalsupply = 10000000;\r\n\t}\r\n\r\n\r\n}",
  "sourcePath": "C:/Users/bonap/Token_sale/contracts/DappToken.sol",
  "compiler": {
    "name": "solc",
    "version": "0.5.8+commit.23d335f2.Emscripten.clang"
  },
  "schemaVersion": "3.0.11",
  "updatedAt": "2019-07-24T14:18:48.309Z",
  "devdoc": {
    "methods": {}
  },
  "userdoc": {
    "methods": {}
  }
}